{
  "contractName": "CourseMarketplace",
  "abi": [
    {
      "inputs": [],
      "stateMutability": "nonpayable",
      "type": "constructor"
    },
    {
      "inputs": [],
      "name": "isStopped",
      "outputs": [
        {
          "internalType": "bool",
          "name": "",
          "type": "bool"
        }
      ],
      "stateMutability": "view",
      "type": "function",
      "constant": true
    },
    {
      "stateMutability": "payable",
      "type": "receive",
      "payable": true
    },
    {
      "inputs": [
        {
          "internalType": "uint256",
          "name": "amount",
          "type": "uint256"
        }
      ],
      "name": "withdraw",
      "outputs": [],
      "stateMutability": "nonpayable",
      "type": "function"
    },
    {
      "inputs": [],
      "name": "emergencyWithdraw",
      "outputs": [],
      "stateMutability": "nonpayable",
      "type": "function"
    },
    {
      "inputs": [],
      "name": "selfDestuct",
      "outputs": [],
      "stateMutability": "nonpayable",
      "type": "function"
    },
    {
      "inputs": [],
      "name": "stopContract",
      "outputs": [],
      "stateMutability": "nonpayable",
      "type": "function"
    },
    {
      "inputs": [],
      "name": "resumeContract",
      "outputs": [],
      "stateMutability": "nonpayable",
      "type": "function"
    },
    {
      "inputs": [
        {
          "internalType": "bytes32",
          "name": "courseId",
          "type": "bytes32"
        },
        {
          "internalType": "bytes32",
          "name": "proof",
          "type": "bytes32"
        }
      ],
      "name": "purchaseCourse",
      "outputs": [
        {
          "internalType": "bytes32",
          "name": "",
          "type": "bytes32"
        }
      ],
      "stateMutability": "payable",
      "type": "function",
      "payable": true
    },
    {
      "inputs": [
        {
          "internalType": "bytes32",
          "name": "courseHash",
          "type": "bytes32"
        }
      ],
      "name": "repurchaseCourse",
      "outputs": [],
      "stateMutability": "payable",
      "type": "function",
      "payable": true
    },
    {
      "inputs": [
        {
          "internalType": "bytes32",
          "name": "courseHash",
          "type": "bytes32"
        }
      ],
      "name": "activateCourse",
      "outputs": [],
      "stateMutability": "nonpayable",
      "type": "function"
    },
    {
      "inputs": [
        {
          "internalType": "bytes32",
          "name": "courseHash",
          "type": "bytes32"
        }
      ],
      "name": "deactivateCourse",
      "outputs": [],
      "stateMutability": "nonpayable",
      "type": "function"
    },
    {
      "inputs": [
        {
          "internalType": "address",
          "name": "newOwner",
          "type": "address"
        }
      ],
      "name": "transferOwnership",
      "outputs": [],
      "stateMutability": "nonpayable",
      "type": "function"
    },
    {
      "inputs": [],
      "name": "getCourseCount",
      "outputs": [
        {
          "internalType": "uint256",
          "name": "",
          "type": "uint256"
        }
      ],
      "stateMutability": "view",
      "type": "function",
      "constant": true
    },
    {
      "inputs": [
        {
          "internalType": "uint32",
          "name": "index",
          "type": "uint32"
        }
      ],
      "name": "getCourseHashAtIndex",
      "outputs": [
        {
          "internalType": "bytes32",
          "name": "",
          "type": "bytes32"
        }
      ],
      "stateMutability": "view",
      "type": "function",
      "constant": true
    },
    {
      "inputs": [
        {
          "internalType": "bytes32",
          "name": "courseHash",
          "type": "bytes32"
        }
      ],
      "name": "getCourseByHash",
      "outputs": [
        {
          "components": [
            {
              "internalType": "uint256",
              "name": "id",
              "type": "uint256"
            },
            {
              "internalType": "uint256",
              "name": "price",
              "type": "uint256"
            },
            {
              "internalType": "bytes32",
              "name": "proof",
              "type": "bytes32"
            },
            {
              "internalType": "address",
              "name": "owner",
              "type": "address"
            },
            {
              "internalType": "enum CourseMarketplace.State",
              "name": "state",
              "type": "uint8"
            }
          ],
          "internalType": "struct CourseMarketplace.Course",
          "name": "",
          "type": "tuple"
        }
      ],
      "stateMutability": "view",
      "type": "function",
      "constant": true
    },
    {
      "inputs": [],
      "name": "getContractOwner",
      "outputs": [
        {
          "internalType": "address",
          "name": "",
          "type": "address"
        }
      ],
      "stateMutability": "view",
      "type": "function",
      "constant": true
    }
  ],
  "bytecode": "0x60806040526000600360146101000a81548160ff02191690831515021790555034801561002b57600080fd5b5061003b3361004060201b60201c565b610084565b80600360006101000a81548173ffffffffffffffffffffffffffffffffffffffff021916908373ffffffffffffffffffffffffffffffffffffffff16021790555050565b611ca5806100936000396000f3fe6080604052600436106100ec5760003560e01c8063442890d51161008a57806396cfda061161005957806396cfda06146102bd578063c4bc5da5146102e8578063db2e21bc146102ff578063f2fde38b14610316576100f3565b8063442890d5146102105780636136e1eb1461023b57806362e4e6ac14610257578063935d7e6d14610294576100f3565b80632f27f51a116100c65780632f27f51a1461014f578063392625721461017f5780633f683b6a146101a8578063425cf6d7146101d3576100f3565b806312253a6c146100f85780631c77d60a1461010f5780632e1a7d4d14610126576100f3565b366100f357005b600080fd5b34801561010457600080fd5b5061010d61033f565b005b34801561011b57600080fd5b506101246103d1565b005b34801561013257600080fd5b5061014d600480360381019061014891906113a0565b6104d0565b005b61016960048036038101906101649190611403565b610617565b6040516101769190611452565b60405180910390f35b34801561018b57600080fd5b506101a660048036038101906101a1919061146d565b610817565b005b3480156101b457600080fd5b506101bd6109e3565b6040516101ca91906114b5565b60405180910390f35b3480156101df57600080fd5b506101fa60048036038101906101f5919061150c565b6109f6565b6040516102079190611452565b60405180910390f35b34801561021c57600080fd5b50610225610a19565b604051610232919061157a565b60405180910390f35b6102556004803603810190610250919061146d565b610a43565b005b34801561026357600080fd5b5061027e6004803603810190610279919061146d565b610bb4565b60405161028b91906116a1565b60405180910390f35b3480156102a057600080fd5b506102bb60048036038101906102b6919061146d565b610c8f565b005b3480156102c957600080fd5b506102d2610f3a565b6040516102df91906116cb565b60405180910390f35b3480156102f457600080fd5b506102fd610f44565b005b34801561030b57600080fd5b50610314610fd6565b005b34801561032257600080fd5b5061033d60048036038101906103389190611712565b61116b565b005b610347610a19565b73ffffffffffffffffffffffffffffffffffffffff163373ffffffffffffffffffffffffffffffffffffffff16146103b4576040517f08c379a00000000000000000000000000000000000000000000000000000000081526004016103ab9061179c565b60405180910390fd5b6001600360146101000a81548160ff021916908315150217905550565b600360149054906101000a900460ff16610420576040517f08c379a000000000000000000000000000000000000000000000000000000000815260040161041790611808565b60405180910390fd5b610428610a19565b73ffffffffffffffffffffffffffffffffffffffff163373ffffffffffffffffffffffffffffffffffffffff1614610495576040517f08c379a000000000000000000000000000000000000000000000000000000000815260040161048c9061179c565b60405180910390fd5b600360009054906101000a900473ffffffffffffffffffffffffffffffffffffffff1673ffffffffffffffffffffffffffffffffffffffff16ff5b6104d8610a19565b73ffffffffffffffffffffffffffffffffffffffff163373ffffffffffffffffffffffffffffffffffffffff1614610545576040517f08c379a000000000000000000000000000000000000000000000000000000000815260040161053c9061179c565b60405180910390fd5b6000600360009054906101000a900473ffffffffffffffffffffffffffffffffffffffff1673ffffffffffffffffffffffffffffffffffffffff168260405161058d90611859565b60006040518083038185875af1925050503d80600081146105ca576040519150601f19603f3d011682016040523d82523d6000602084013e6105cf565b606091505b5050905080610613576040517f08c379a000000000000000000000000000000000000000000000000000000000815260040161060a906118ba565b60405180910390fd5b5050565b6000600360149054906101000a900460ff1615610669576040517f08c379a000000000000000000000000000000000000000000000000000000000815260040161066090611926565b60405180910390fd5b6000833360405160200161067e9291906119af565b6040516020818303038152906040528051906020012090506000600260008154809291906106ab90611a0a565b9190505590506106ba826111ec565b156106fa576040517f08c379a00000000000000000000000000000000000000000000000000000000081526004016106f190611a9f565b60405180910390fd5b8160016000838152602001908152602001600020819055506040518060a001604052808281526020013481526020018581526020013373ffffffffffffffffffffffffffffffffffffffff1681526020016000600281111561075f5761075e6115c2565b5b81525060008084815260200190815260200160002060008201518160000155602082015181600101556040820151816002015560608201518160030160006101000a81548173ffffffffffffffffffffffffffffffffffffffff021916908373ffffffffffffffffffffffffffffffffffffffff16021790555060808201518160030160146101000a81548160ff02191690836002811115610804576108036115c2565b5b0217905550905050819250505092915050565b61081f610a19565b73ffffffffffffffffffffffffffffffffffffffff163373ffffffffffffffffffffffffffffffffffffffff161461088c576040517f08c379a00000000000000000000000000000000000000000000000000000000081526004016108839061179c565b60405180910390fd5b600360149054906101000a900460ff16156108dc576040517f08c379a00000000000000000000000000000000000000000000000000000000081526004016108d390611926565b60405180910390fd5b6108e581611259565b610924576040517f08c379a000000000000000000000000000000000000000000000000000000000815260040161091b90611b0b565b60405180910390fd5b600080600083815260200190815260200160002090506000600281111561094e5761094d6115c2565b5b8160030160149054906101000a900460ff166002811115610972576109716115c2565b5b146109b2576040517f08c379a00000000000000000000000000000000000000000000000000000000081526004016109a990611b77565b60405180910390fd5b60018160030160146101000a81548160ff021916908360028111156109da576109d96115c2565b5b02179055505050565b600360149054906101000a900460ff1681565b6000600160008363ffffffff168152602001908152602001600020549050919050565b6000600360009054906101000a900473ffffffffffffffffffffffffffffffffffffffff16905090565b600360149054906101000a900460ff1615610a93576040517f08c379a0000000000000000000000000000000000000000000000000000000008152600401610a8a90611926565b60405180910390fd5b610a9c81611259565b610adb576040517f08c379a0000000000000000000000000000000000000000000000000000000008152600401610ad290611b0b565b60405180910390fd5b610ae4816111ec565b610b23576040517f08c379a0000000000000000000000000000000000000000000000000000000008152600401610b1a90611be3565b60405180910390fd5b60008060008381526020019081526020016000209050600280811115610b4c57610b4b6115c2565b5b8160030160149054906101000a900460ff166002811115610b7057610b6f6115c2565b5b14610b7a57600080fd5b60008160030160146101000a81548160ff02191690836002811115610ba257610ba16115c2565b5b02179055503481600101819055505050565b610bbc61130b565b6000808381526020019081526020016000206040518060a00160405290816000820154815260200160018201548152602001600282015481526020016003820160009054906101000a900473ffffffffffffffffffffffffffffffffffffffff1673ffffffffffffffffffffffffffffffffffffffff1673ffffffffffffffffffffffffffffffffffffffff1681526020016003820160149054906101000a900460ff166002811115610c7257610c716115c2565b5b6002811115610c8457610c836115c2565b5b815250509050919050565b610c97610a19565b73ffffffffffffffffffffffffffffffffffffffff163373ffffffffffffffffffffffffffffffffffffffff1614610d04576040517f08c379a0000000000000000000000000000000000000000000000000000000008152600401610cfb9061179c565b60405180910390fd5b600360149054906101000a900460ff1615610d54576040517f08c379a0000000000000000000000000000000000000000000000000000000008152600401610d4b90611926565b60405180910390fd5b610d5d81611259565b610d9c576040517f08c379a0000000000000000000000000000000000000000000000000000000008152600401610d9390611b0b565b60405180910390fd5b6000806000838152602001908152602001600020905060006002811115610dc657610dc56115c2565b5b8160030160149054906101000a900460ff166002811115610dea57610de96115c2565b5b14610e2a576040517f08c379a0000000000000000000000000000000000000000000000000000000008152600401610e2190611b77565b60405180910390fd5b60008160030160009054906101000a900473ffffffffffffffffffffffffffffffffffffffff1673ffffffffffffffffffffffffffffffffffffffff168260010154604051610e7890611859565b60006040518083038185875af1925050503d8060008114610eb5576040519150601f19603f3d011682016040523d82523d6000602084013e610eba565b606091505b5050905080610efe576040517f08c379a0000000000000000000000000000000000000000000000000000000008152600401610ef590611c4f565b60405180910390fd5b60028260030160146101000a81548160ff02191690836002811115610f2657610f256115c2565b5b021790555060008260010181905550505050565b6000600254905090565b610f4c610a19565b73ffffffffffffffffffffffffffffffffffffffff163373ffffffffffffffffffffffffffffffffffffffff1614610fb9576040517f08c379a0000000000000000000000000000000000000000000000000000000008152600401610fb09061179c565b60405180910390fd5b6000600360146101000a81548160ff021916908315150217905550565b600360149054906101000a900460ff16611025576040517f08c379a000000000000000000000000000000000000000000000000000000000815260040161101c90611808565b60405180910390fd5b61102d610a19565b73ffffffffffffffffffffffffffffffffffffffff163373ffffffffffffffffffffffffffffffffffffffff161461109a576040517f08c379a00000000000000000000000000000000000000000000000000000000081526004016110919061179c565b60405180910390fd5b6000600360009054906101000a900473ffffffffffffffffffffffffffffffffffffffff1673ffffffffffffffffffffffffffffffffffffffff16476040516110e290611859565b60006040518083038185875af1925050503d806000811461111f576040519150601f19603f3d011682016040523d82523d6000602084013e611124565b606091505b5050905080611168576040517f08c379a000000000000000000000000000000000000000000000000000000000815260040161115f906118ba565b60405180910390fd5b50565b611173610a19565b73ffffffffffffffffffffffffffffffffffffffff163373ffffffffffffffffffffffffffffffffffffffff16146111e0576040517f08c379a00000000000000000000000000000000000000000000000000000000081526004016111d79061179c565b60405180910390fd5b6111e9816112c7565b50565b60003373ffffffffffffffffffffffffffffffffffffffff1660008084815260200190815260200160002060030160009054906101000a900473ffffffffffffffffffffffffffffffffffffffff1673ffffffffffffffffffffffffffffffffffffffff16149050919050565b60008073ffffffffffffffffffffffffffffffffffffffff1660008084815260200190815260200160002060030160009054906101000a900473ffffffffffffffffffffffffffffffffffffffff1673ffffffffffffffffffffffffffffffffffffffff1614159050919050565b80600360006101000a81548173ffffffffffffffffffffffffffffffffffffffff021916908373ffffffffffffffffffffffffffffffffffffffff16021790555050565b6040518060a00160405280600081526020016000815260200160008019168152602001600073ffffffffffffffffffffffffffffffffffffffff1681526020016000600281111561135f5761135e6115c2565b5b81525090565b600080fd5b6000819050919050565b61137d8161136a565b811461138857600080fd5b50565b60008135905061139a81611374565b92915050565b6000602082840312156113b6576113b5611365565b5b60006113c48482850161138b565b91505092915050565b6000819050919050565b6113e0816113cd565b81146113eb57600080fd5b50565b6000813590506113fd816113d7565b92915050565b6000806040838503121561141a57611419611365565b5b6000611428858286016113ee565b9250506020611439858286016113ee565b9150509250929050565b61144c816113cd565b82525050565b60006020820190506114676000830184611443565b92915050565b60006020828403121561148357611482611365565b5b6000611491848285016113ee565b91505092915050565b60008115159050919050565b6114af8161149a565b82525050565b60006020820190506114ca60008301846114a6565b92915050565b600063ffffffff82169050919050565b6114e9816114d0565b81146114f457600080fd5b50565b600081359050611506816114e0565b92915050565b60006020828403121561152257611521611365565b5b6000611530848285016114f7565b91505092915050565b600073ffffffffffffffffffffffffffffffffffffffff82169050919050565b600061156482611539565b9050919050565b61157481611559565b82525050565b600060208201905061158f600083018461156b565b92915050565b61159e8161136a565b82525050565b6115ad816113cd565b82525050565b6115bc81611559565b82525050565b7f4e487b7100000000000000000000000000000000000000000000000000000000600052602160045260246000fd5b60038110611602576116016115c2565b5b50565b6000819050611613826115f1565b919050565b600061162382611605565b9050919050565b61163381611618565b82525050565b60a08201600082015161164f6000850182611595565b5060208201516116626020850182611595565b50604082015161167560408501826115a4565b50606082015161168860608501826115b3565b50608082015161169b608085018261162a565b50505050565b600060a0820190506116b66000830184611639565b92915050565b6116c58161136a565b82525050565b60006020820190506116e060008301846116bc565b92915050565b6116ef81611559565b81146116fa57600080fd5b50565b60008135905061170c816116e6565b92915050565b60006020828403121561172857611727611365565b5b6000611736848285016116fd565b91505092915050565b600082825260208201905092915050565b7f4f6e6c79206f776e657220686173206163636573730000000000000000000000600082015250565b600061178660158361173f565b915061179182611750565b602082019050919050565b600060208201905081810360008301526117b581611779565b9050919050565b7f7472616e73616374696f6e206973206e6f742073746f70706564000000000000600082015250565b60006117f2601a8361173f565b91506117fd826117bc565b602082019050919050565b60006020820190508181036000830152611821816117e5565b9050919050565b600081905092915050565b50565b6000611843600083611828565b915061184e82611833565b600082019050919050565b600061186482611836565b9150819050919050565b7f5472616e73666572206661696c65640000000000000000000000000000000000600082015250565b60006118a4600f8361173f565b91506118af8261186e565b602082019050919050565b600060208201905081810360008301526118d381611897565b9050919050565b7f7472616e73616374696f6e2073746f7070656420616c72656164790000000000600082015250565b6000611910601b8361173f565b915061191b826118da565b602082019050919050565b6000602082019050818103600083015261193f81611903565b9050919050565b6000819050919050565b61196161195c826113cd565b611946565b82525050565b60008160601b9050919050565b600061197f82611967565b9050919050565b600061199182611974565b9050919050565b6119a96119a482611559565b611986565b82525050565b60006119bb8285611950565b6020820191506119cb8284611998565b6014820191508190509392505050565b7f4e487b7100000000000000000000000000000000000000000000000000000000600052601160045260246000fd5b6000611a158261136a565b91507fffffffffffffffffffffffffffffffffffffffffffffffffffffffffffffffff821415611a4857611a476119db565b5b600182019050919050565b7f5468697320636f7572736520616c726561647920686173206f776e6572000000600082015250565b6000611a89601d8361173f565b9150611a9482611a53565b602082019050919050565b60006020820190508181036000830152611ab881611a7c565b9050919050565b7f436f75727365206973206e6f7420637265617465642e00000000000000000000600082015250565b6000611af560168361173f565b9150611b0082611abf565b602082019050919050565b60006020820190508181036000830152611b2481611ae8565b9050919050565b7f436f75727365206e6f7420707572636861736564207965742e00000000000000600082015250565b6000611b6160198361173f565b9150611b6c82611b2b565b602082019050919050565b60006020820190508181036000830152611b9081611b54565b9050919050565b7f436f7572736520646f65736e27742068617665206f776e657200000000000000600082015250565b6000611bcd60198361173f565b9150611bd882611b97565b602082019050919050565b60006020820190508181036000830152611bfc81611bc0565b9050919050565b7f5472616e73666572206661696c65642100000000000000000000000000000000600082015250565b6000611c3960108361173f565b9150611c4482611c03565b602082019050919050565b60006020820190508181036000830152611c6881611c2c565b905091905056fea264697066735822122065ecbe3d4aa35c1ef5ce8bccc64e0da1f04117835848565dfc238ba623a6a35d64736f6c634300080b0033",
  "immutableReferences": {},
  "source": "// SPDX-License-Identifier: MIT\npragma solidity >=0.4.22 <0.9.0;\n\ncontract CourseMarketplace {\n    enum State {\n        Purchased,\n        Activated,\n        Deactivated\n    }\n\n    struct Course {\n        uint256 id;\n        uint256 price;\n        bytes32 proof;\n        address owner;\n        State state;\n    }\n\n    mapping(bytes32 => Course) private ownedCourses;\n    mapping(uint256 => bytes32) private ownedCourseHash;\n\n    uint256 private totalOwnedCourses;\n    address payable private owner;\n    bool public isStopped = false;\n\n    constructor() {\n        setContractOwner(msg.sender);\n    }\n\n    modifier onlyOwner() {\n        require(msg.sender == getContractOwner(), \"Only owner has access\");\n        _;\n    }\n\n    modifier onlyNotStopped() {\n        require(!isStopped, \"transaction stopped already\");\n        _;\n    }\n\n    modifier onlyStopped() {\n        require(isStopped, \"transaction is not stopped\");\n        _;\n    }\n\n    receive() external payable {}\n\n    function withdraw(uint256 amount) external onlyOwner {\n        (bool success, ) = owner.call{value: amount}(\"\");\n        require(success, \"Transfer failed\");\n    }\n\n    function emergencyWithdraw() external onlyStopped onlyOwner {\n        (bool success, ) = owner.call{value: address(this).balance}(\"\");\n        require(success, \"Transfer failed\");\n    }\n\n    function selfDestuct() external onlyStopped onlyOwner {\n        selfdestruct(owner);\n    }\n\n    function stopContract() external onlyOwner {\n        isStopped = true;\n    }\n\n    function resumeContract() external onlyOwner {\n        isStopped = false;\n    }\n\n    function purchaseCourse(bytes32 courseId, bytes32 proof)\n        external\n        payable\n        onlyNotStopped\n        returns (bytes32)\n    {\n        bytes32 courseHash = keccak256(abi.encodePacked(courseId, msg.sender));\n        uint256 id = totalOwnedCourses++;\n\n        require(\n            !hasCourseOwnership(courseHash),\n            \"This course already has owner\"\n        );\n\n        ownedCourseHash[id] = courseHash;\n        ownedCourses[courseHash] = Course({\n            id: id,\n            price: msg.value,\n            proof: proof,\n            owner: msg.sender,\n            state: State.Purchased\n        });\n        return courseHash;\n    }\n\n    function repurchaseCourse(bytes32 courseHash)\n        external\n        payable\n        onlyNotStopped\n    {\n        require(isCourseCreated(courseHash), \"Course is not created.\");\n        require(hasCourseOwnership(courseHash), \"Course doesn't have owner\");\n\n        Course storage course = ownedCourses[courseHash];\n        require(course.state == State.Deactivated);\n\n        course.state = State.Purchased;\n        course.price = msg.value;\n    }\n\n    function activateCourse(bytes32 courseHash)\n        external\n        onlyOwner\n        onlyNotStopped\n    {\n        require(isCourseCreated(courseHash), \"Course is not created.\");\n        Course storage course = ownedCourses[courseHash];\n\n        require(course.state == State.Purchased, \"Course not purchased yet.\");\n        course.state = State.Activated;\n    }\n\n    function deactivateCourse(bytes32 courseHash)\n        external\n        onlyOwner\n        onlyNotStopped\n    {\n        require(isCourseCreated(courseHash), \"Course is not created.\");\n        Course storage course = ownedCourses[courseHash];\n\n        require(course.state == State.Purchased, \"Course not purchased yet.\");\n        (bool success, ) = course.owner.call{value: course.price}(\"\");\n        require(success, \"Transfer failed!\");\n\n        course.state = State.Deactivated;\n        course.price = 0;\n    }\n\n    function transferOwnership(address newOwner) external onlyOwner {\n        setContractOwner(newOwner);\n    }\n\n    function getCourseCount() external view returns (uint256) {\n        return totalOwnedCourses;\n    }\n\n    function getCourseHashAtIndex(uint32 index)\n        external\n        view\n        returns (bytes32)\n    {\n        return ownedCourseHash[index];\n    }\n\n    function getCourseByHash(bytes32 courseHash)\n        external\n        view\n        returns (Course memory)\n    {\n        return ownedCourses[courseHash];\n    }\n\n    function getContractOwner() public view returns (address) {\n        return owner;\n    }\n\n    function setContractOwner(address newOwner) private {\n        owner = payable(newOwner);\n    }\n\n    function isCourseCreated(bytes32 courseHash) private view returns (bool) {\n        return\n            ownedCourses[courseHash].owner !=\n            0x0000000000000000000000000000000000000000;\n    }\n\n    function hasCourseOwnership(bytes32 courseHash)\n        private\n        view\n        returns (bool)\n    {\n        return ownedCourses[courseHash].owner == msg.sender;\n    }\n}\n",
  "sourcePath": "/Users/hidetomo/Individual/solidity-marketplace/front/contracts/CourseMarketplace.sol",
  "compiler": {
    "name": "solc",
    "version": "0.8.11+commit.d7f03943.Emscripten.clang"
  },
  "schemaVersion": "3.4.4",
  "updatedAt": "2022-02-13T12:09:41.298Z",
  "networkType": "ethereum",
  "devdoc": {
    "kind": "dev",
    "methods": {},
    "version": 1
  },
  "userdoc": {
    "kind": "user",
    "methods": {},
    "version": 1
  }
}